{
  "transactions": [
    {
      "hash": "0x9f69760bee1abb0575852ccb0501a0b7d1a8bd0c95574873ba5468ab1bf7d6c3",
      "transactionType": "CALL",
      "contractName": null,
      "contractAddress": "0x3c7776b6ba2313fdb1eba4937187c2c81e3b1632",
      "function": "transferOwnership(address)",
      "arguments": [
        "0x03D8b3237b79639AE0bD845f94ee304679b35721"
      ],
      "transaction": {
        "from": "0xd4c5a44b6bbbdadb16973947c32cbc1d335fb416",
        "to": "0x3c7776b6ba2313fdb1eba4937187c2c81e3b1632",
        "gas": "0x9cd0",
        "value": "0x0",
        "input": "0xf2fde38b00000000000000000000000003d8b3237b79639ae0bd845f94ee304679b35721",
        "nonce": "0x1a",
        "chainId": "0x15f91"
      },
      "additionalContracts": [],
      "isFixedGasLimit": false
    }
  ],
  "receipts": [
    {
      "status": "0x1",
      "cumulativeGasUsed": "0x7188",
      "logs": [
        {
          "address": "0x3c7776b6ba2313fdb1eba4937187c2c81e3b1632",
          "topics": [
            "0x8be0079c531659141344cd1fd0a4f28419497f9722a3daafe3b4186f6b6457e0",
            "0x000000000000000000000000d4c5a44b6bbbdadb16973947c32cbc1d335fb416",
            "0x00000000000000000000000003d8b3237b79639ae0bd845f94ee304679b35721"
          ],
          "data": "0x",
          "blockHash": "0x33727c143f6019d016dec00b42217aaaa30ff8e0edf86296deb5a731caf44430",
          "blockNumber": "0x1289ea1",
          "transactionHash": "0x9f69760bee1abb0575852ccb0501a0b7d1a8bd0c95574873ba5468ab1bf7d6c3",
          "transactionIndex": "0x0",
          "logIndex": "0x0",
          "removed": false
        }
      ],
      "logsBloom": "0x00000000000000000000000000000000000000000000000000800000040000000000080000000000002000020000000000000000000008000000000000000000000000000000000000000000000000000001000000000000000000000000000000000000000000000000000000000000000000000000000008000000000000400000000000080000000000000000000000000000000000000000000000000000000000000000000000000000000000000000000000000000000000000000000000000000000000000000000000000000000000000000000000000000000000010000000400000000000000000000000000000000000000000000000000000000",
      "type": "0x2",
      "transactionHash": "0x9f69760bee1abb0575852ccb0501a0b7d1a8bd0c95574873ba5468ab1bf7d6c3",
      "transactionIndex": "0x0",
      "blockHash": "0x33727c143f6019d016dec00b42217aaaa30ff8e0edf86296deb5a731caf44430",
      "blockNumber": "0x1289ea1",
      "gasUsed": "0x7188",
      "effectiveGasPrice": "0x12a153440",
      "from": "0xd4c5a44b6bbbdadb16973947c32cbc1d335fb416",
      "to": "0x3c7776b6ba2313fdb1eba4937187c2c81e3b1632",
      "contractAddress": null
    }
  ],
  "libraries": [],
  "pending": [],
  "returns": {},
  "timestamp": 1743697833,
  "chain": 90001,
  "commit": null
}