{
  "transactions": [
    {
      "hash": "0x9ca2e5f7c755eedbc64883c82f78ea3a16da3bd99f1b864e2e97a78c438179ef",
      "transactionType": "CALL",
      "contractName": null,
      "contractAddress": "0x03d8b3237b79639ae0bd845f94ee304679b35721",
      "function": "addPool(address,uint256)",
      "arguments": [
        "0x789492C8c1445a795a3C4439579A0Df89B557791",
        "50"
      ],
      "transaction": {
        "from": "0xd4c5a44b6bbbdadb16973947c32cbc1d335fb416",
        "to": "0x03d8b3237b79639ae0bd845f94ee304679b35721",
        "gas": "0x26918",
        "value": "0x0",
        "input": "0x32a9caba000000000000000000000000789492c8c1445a795a3c4439579a0df89b5577910000000000000000000000000000000000000000000000000000000000000032",
        "nonce": "0x2f",
        "chainId": "0x15f91"
      },
      "additionalContracts": [],
      "isFixedGasLimit": false
    },
    {
      "hash": "0x8d60d1c27c6c83fef1c553fab27d1f92ce953ceb92ea2bfdcf28e40a53791161",
      "transactionType": "CALL",
      "contractName": null,
      "contractAddress": "0x03d8b3237b79639ae0bd845f94ee304679b35721",
      "function": "addPool(address,uint256)",
      "arguments": [
        "0xA5F25C6A6C1ae1Dc0941CfB3c7541F18C868572c",
        "30"
      ],
      "transaction": {
        "from": "0xd4c5a44b6bbbdadb16973947c32cbc1d335fb416",
        "to": "0x03d8b3237b79639ae0bd845f94ee304679b35721",
        "gas": "0x26918",
        "value": "0x0",
        "input": "0x32a9caba000000000000000000000000a5f25c6a6c1ae1dc0941cfb3c7541f18c868572c000000000000000000000000000000000000000000000000000000000000001e",
        "nonce": "0x30",
        "chainId": "0x15f91"
      },
      "additionalContracts": [],
      "isFixedGasLimit": false
    },
    {
      "hash": "0x9574bde7767b229cb76058c1643205bcccd748e9dee34f061b18f32053b80015",
      "transactionType": "CALL",
      "contractName": null,
      "contractAddress": "0x03d8b3237b79639ae0bd845f94ee304679b35721",
      "function": "addPool(address,uint256)",
      "arguments": [
        "0xe8aa95A994987cA850ae35443b39ed1deB52aA0f",
        "20"
      ],
      "transaction": {
        "from": "0xd4c5a44b6bbbdadb16973947c32cbc1d335fb416",
        "to": "0x03d8b3237b79639ae0bd845f94ee304679b35721",
        "gas": "0x26918",
        "value": "0x0",
        "input": "0x32a9caba000000000000000000000000e8aa95a994987ca850ae35443b39ed1deb52aa0f0000000000000000000000000000000000000000000000000000000000000014",
        "nonce": "0x31",
        "chainId": "0x15f91"
      },
      "additionalContracts": [],
      "isFixedGasLimit": false
    }
  ],
  "receipts": [
    {
      "status": "0x1",
      "cumulativeGasUsed": "0x1a5f2",
      "logs": [
        {
          "address": "0x03d8b3237b79639ae0bd845f94ee304679b35721",
          "topics": [
            "0x6c5d0ef1d0199b6de41ecbce95f59643be4d723ca363faf92d756e61e82fb13e",
            "0x0000000000000000000000000000000000000000000000000000000000000003"
          ],
          "data": "0x000000000000000000000000789492c8c1445a795a3c4439579a0df89b5577910000000000000000000000000000000000000000000000000000000000000032",
          "blockHash": "0x1b6f78fb35a85ccd9e52a9c9d2f0bf038b0e93a9e486f29f0c786b7688ed8097",
          "blockNumber": "0x128d7ee",
          "transactionHash": "0x9ca2e5f7c755eedbc64883c82f78ea3a16da3bd99f1b864e2e97a78c438179ef",
          "transactionIndex": "0x0",
          "logIndex": "0x0",
          "removed": false
        }
      ],
      "logsBloom": "0x00000000000000000000000000000000000000000000000000000000000000000000000000000008000000000000000000000000020000008000000000000000000000000000000000000040000000000000000000000000000000000000000000000000000000000000000000000000000000000000000000000000000000000000000000000200000000000000000000000000000000000000000000000000000000000000000000000000000000000000000000800000000000000000400000000000000000000000000000000000000000000000000000000000000000000000000000000000000000000000000000800000000000000000000000000000",
      "type": "0x2",
      "transactionHash": "0x9ca2e5f7c755eedbc64883c82f78ea3a16da3bd99f1b864e2e97a78c438179ef",
      "transactionIndex": "0x0",
      "blockHash": "0x1b6f78fb35a85ccd9e52a9c9d2f0bf038b0e93a9e486f29f0c786b7688ed8097",
      "blockNumber": "0x128d7ee",
      "gasUsed": "0x1a5f2",
      "effectiveGasPrice": "0x12a05f201",
      "from": "0xd4c5a44b6bbbdadb16973947c32cbc1d335fb416",
      "to": "0x03d8b3237b79639ae0bd845f94ee304679b35721",
      "contractAddress": null
    },
    {
      "status": "0x1",
      "cumulativeGasUsed": "0x34be4",
      "logs": [
        {
          "address": "0x03d8b3237b79639ae0bd845f94ee304679b35721",
          "topics": [
            "0x6c5d0ef1d0199b6de41ecbce95f59643be4d723ca363faf92d756e61e82fb13e",
            "0x0000000000000000000000000000000000000000000000000000000000000004"
          ],
          "data": "0x000000000000000000000000a5f25c6a6c1ae1dc0941cfb3c7541f18c868572c000000000000000000000000000000000000000000000000000000000000001e",
          "blockHash": "0x1b6f78fb35a85ccd9e52a9c9d2f0bf038b0e93a9e486f29f0c786b7688ed8097",
          "blockNumber": "0x128d7ee",
          "transactionHash": "0x8d60d1c27c6c83fef1c553fab27d1f92ce953ceb92ea2bfdcf28e40a53791161",
          "transactionIndex": "0x0",
          "logIndex": "0x0",
          "removed": false
        }
      ],
      "logsBloom": "0x00000000000000000000000000000000000000000000000000000000000000000000000000000008000000000000000000000000000000008000000000000000000000000000000000000040000000000000000000000000000000000000000008000000000000000000000000000000000000000000000000000000000000000000000000000200000000000000000000000000000000000000000000000000000000000000000000000000000000000000000000000000002000000000000000000000000000000000000000000000000000008000000000000000000000000000000000000000000000000000000000800000000000000000000000000000",
      "type": "0x2",
      "transactionHash": "0x8d60d1c27c6c83fef1c553fab27d1f92ce953ceb92ea2bfdcf28e40a53791161",
      "transactionIndex": "0x1",
      "blockHash": "0x1b6f78fb35a85ccd9e52a9c9d2f0bf038b0e93a9e486f29f0c786b7688ed8097",
      "blockNumber": "0x128d7ee",
      "gasUsed": "0x1a5f2",
      "effectiveGasPrice": "0x12a05f201",
      "from": "0xd4c5a44b6bbbdadb16973947c32cbc1d335fb416",
      "to": "0x03d8b3237b79639ae0bd845f94ee304679b35721",
      "contractAddress": null
    },
    {
      "status": "0x1",
      "cumulativeGasUsed": "0x4f1d6",
      "logs": [
        {
          "address": "0x03d8b3237b79639ae0bd845f94ee304679b35721",
          "topics": [
            "0x6c5d0ef1d0199b6de41ecbce95f59643be4d723ca363faf92d756e61e82fb13e",
            "0x0000000000000000000000000000000000000000000000000000000000000005"
          ],
          "data": "0x000000000000000000000000e8aa95a994987ca850ae35443b39ed1deb52aa0f0000000000000000000000000000000000000000000000000000000000000014",
          "blockHash": "0x1b6f78fb35a85ccd9e52a9c9d2f0bf038b0e93a9e486f29f0c786b7688ed8097",
          "blockNumber": "0x128d7ee",
          "transactionHash": "0x9574bde7767b229cb76058c1643205bcccd748e9dee34f061b18f32053b80015",
          "transactionIndex": "0x0",
          "logIndex": "0x0",
          "removed": false
        }
      ],
      "logsBloom": "0x00000000000000000000000000000000000000000000000000000000000000000000000000000008000000000000000000000000000000008000000000000000000010000000000000000040000000000000000000000000000000000000000000000000000000000000000000000000000000000000000000000000000000000000000000000200000000000000001000000800000000000000000000000000000000000000000000000000000000000000000000000000000000000000000000000000000000000000000000000000000000000000000000000000000000000000000000000000000000000000000000800000000000000000000000000000",
      "type": "0x2",
      "transactionHash": "0x9574bde7767b229cb76058c1643205bcccd748e9dee34f061b18f32053b80015",
      "transactionIndex": "0x2",
      "blockHash": "0x1b6f78fb35a85ccd9e52a9c9d2f0bf038b0e93a9e486f29f0c786b7688ed8097",
      "blockNumber": "0x128d7ee",
      "gasUsed": "0x1a5f2",
      "effectiveGasPrice": "0x12a05f201",
      "from": "0xd4c5a44b6bbbdadb16973947c32cbc1d335fb416",
      "to": "0x03d8b3237b79639ae0bd845f94ee304679b35721",
      "contractAddress": null
    }
  ],
  "libraries": [],
  "pending": [],
  "returns": {},
  "timestamp": 1743778031,
  "chain": 90001,
  "commit": null
}