{
  "transactions": [
    {
      "hash": "0x6916c468aa5a5c6ff1db2ce218c8eaee5bc1b6ed38180a25fa3f7e383dd2eb18",
      "transactionType": "CALL",
      "contractName": null,
      "contractAddress": "0x22575a2f08fb2bc328717e0a903b2cb0e8077274",
      "function": "addPool(address,uint256)",
      "arguments": [
        "0x789492C8c1445a795a3C4439579A0Df89B557791",
        "50"
      ],
      "transaction": {
        "from": "0xd4c5a44b6bbbdadb16973947c32cbc1d335fb416",
        "to": "0x22575a2f08fb2bc328717e0a903b2cb0e8077274",
        "gas": "0x32c79",
        "value": "0x0",
        "input": "0x32a9caba000000000000000000000000789492c8c1445a795a3c4439579a0df89b5577910000000000000000000000000000000000000000000000000000000000000032",
        "nonce": "0x3a",
        "chainId": "0x15f91"
      },
      "additionalContracts": [],
      "isFixedGasLimit": false
    },
    {
      "hash": "0x139f12409d8e94cdc26aafafc679fb4d363f3dbaaca98c73081a63ceed9632a7",
      "transactionType": "CALL",
      "contractName": null,
      "contractAddress": "0x22575a2f08fb2bc328717e0a903b2cb0e8077274",
      "function": "addPool(address,uint256)",
      "arguments": [
        "0xA5F25C6A6C1ae1Dc0941CfB3c7541F18C868572c",
        "30"
      ],
      "transaction": {
        "from": "0xd4c5a44b6bbbdadb16973947c32cbc1d335fb416",
        "to": "0x22575a2f08fb2bc328717e0a903b2cb0e8077274",
        "gas": "0x26918",
        "value": "0x0",
        "input": "0x32a9caba000000000000000000000000a5f25c6a6c1ae1dc0941cfb3c7541f18c868572c000000000000000000000000000000000000000000000000000000000000001e",
        "nonce": "0x3b",
        "chainId": "0x15f91"
      },
      "additionalContracts": [],
      "isFixedGasLimit": false
    },
    {
      "hash": "0x9322c2ed1fe1658df00ebd126554cac72884fdc26778d0aa1e97d6d57cbca04a",
      "transactionType": "CALL",
      "contractName": null,
      "contractAddress": "0x22575a2f08fb2bc328717e0a903b2cb0e8077274",
      "function": "addPool(address,uint256)",
      "arguments": [
        "0xe8aa95A994987cA850ae35443b39ed1deB52aA0f",
        "20"
      ],
      "transaction": {
        "from": "0xd4c5a44b6bbbdadb16973947c32cbc1d335fb416",
        "to": "0x22575a2f08fb2bc328717e0a903b2cb0e8077274",
        "gas": "0x26918",
        "value": "0x0",
        "input": "0x32a9caba000000000000000000000000e8aa95a994987ca850ae35443b39ed1deb52aa0f0000000000000000000000000000000000000000000000000000000000000014",
        "nonce": "0x3c",
        "chainId": "0x15f91"
      },
      "additionalContracts": [],
      "isFixedGasLimit": false
    }
  ],
  "receipts": [
    {
      "status": "0x1",
      "cumulativeGasUsed": "0x22b8a",
      "logs": [
        {
          "address": "0x22575a2f08fb2bc328717e0a903b2cb0e8077274",
          "topics": [
            "0x6c5d0ef1d0199b6de41ecbce95f59643be4d723ca363faf92d756e61e82fb13e",
            "0x0000000000000000000000000000000000000000000000000000000000000000"
          ],
          "data": "0x000000000000000000000000789492c8c1445a795a3c4439579a0df89b5577910000000000000000000000000000000000000000000000000000000000000032",
          "blockHash": "0xe7fb47fc6c7edcd04e84206698d9304cbf208f1965e5a48d4fa56c5f83c564f6",
          "blockNumber": "0x128d9b3",
          "transactionHash": "0x6916c468aa5a5c6ff1db2ce218c8eaee5bc1b6ed38180a25fa3f7e383dd2eb18",
          "transactionIndex": "0x0",
          "logIndex": "0x0",
          "removed": false
        }
      ],
      "logsBloom": "0x00000000000000000000000000000000000000000000000000000000000000000000000000000008000020000000000000000000000000000000000000000000000000000000000000000040000040000000000000000000000000000000000000000000020000000000000000000800000000000000000000000000000000000000000000000000000000000000000040000000000000000000000000000000000000000000000000000000000000000000000000000000000000000000000000000000000000000000000000000000000000000000000000000000000020000000000000000000000000000000000000800000000000000000000000000000",
      "type": "0x2",
      "transactionHash": "0x6916c468aa5a5c6ff1db2ce218c8eaee5bc1b6ed38180a25fa3f7e383dd2eb18",
      "transactionIndex": "0x0",
      "blockHash": "0xe7fb47fc6c7edcd04e84206698d9304cbf208f1965e5a48d4fa56c5f83c564f6",
      "blockNumber": "0x128d9b3",
      "gasUsed": "0x22b8a",
      "effectiveGasPrice": "0x12a05f201",
      "from": "0xd4c5a44b6bbbdadb16973947c32cbc1d335fb416",
      "to": "0x22575a2f08fb2bc328717e0a903b2cb0e8077274",
      "contractAddress": null
    },
    {
      "status": "0x1",
      "cumulativeGasUsed": "0x1a5f2",
      "logs": [
        {
          "address": "0x22575a2f08fb2bc328717e0a903b2cb0e8077274",
          "topics": [
            "0x6c5d0ef1d0199b6de41ecbce95f59643be4d723ca363faf92d756e61e82fb13e",
            "0x0000000000000000000000000000000000000000000000000000000000000001"
          ],
          "data": "0x000000000000000000000000a5f25c6a6c1ae1dc0941cfb3c7541f18c868572c000000000000000000000000000000000000000000000000000000000000001e",
          "blockHash": "0x1b77a6178a1c1667509b2e62b229d75f86dbce5995c6e531f3c53d46ad68d23e",
          "blockNumber": "0x128d9b4",
          "transactionHash": "0x139f12409d8e94cdc26aafafc679fb4d363f3dbaaca98c73081a63ceed9632a7",
          "transactionIndex": "0x0",
          "logIndex": "0x0",
          "removed": false
        }
      ],
      "logsBloom": "0x00000000000000000000000000000000000000000000000000000000000000000000000000000008000020000000000000000000000000000000000000040000000000000000000000000040000040000000000000040000000000000000000000000000000000000000000000000000000000000000000000000000000000000000000000000000000000000000000040000000000000000000000000000000000000000000000000000000000000000000000000000000000000000000000000000000000000000000000000000000000000000000000000000000000040000000000000000000000000000000000000800000000000000000000000000000",
      "type": "0x2",
      "transactionHash": "0x139f12409d8e94cdc26aafafc679fb4d363f3dbaaca98c73081a63ceed9632a7",
      "transactionIndex": "0x0",
      "blockHash": "0x1b77a6178a1c1667509b2e62b229d75f86dbce5995c6e531f3c53d46ad68d23e",
      "blockNumber": "0x128d9b4",
      "gasUsed": "0x1a5f2",
      "effectiveGasPrice": "0x12a05f201",
      "from": "0xd4c5a44b6bbbdadb16973947c32cbc1d335fb416",
      "to": "0x22575a2f08fb2bc328717e0a903b2cb0e8077274",
      "contractAddress": null
    },
    {
      "status": "0x1",
      "cumulativeGasUsed": "0x34be4",
      "logs": [
        {
          "address": "0x22575a2f08fb2bc328717e0a903b2cb0e8077274",
          "topics": [
            "0x6c5d0ef1d0199b6de41ecbce95f59643be4d723ca363faf92d756e61e82fb13e",
            "0x0000000000000000000000000000000000000000000000000000000000000002"
          ],
          "data": "0x000000000000000000000000e8aa95a994987ca850ae35443b39ed1deb52aa0f0000000000000000000000000000000000000000000000000000000000000014",
          "blockHash": "0x1b77a6178a1c1667509b2e62b229d75f86dbce5995c6e531f3c53d46ad68d23e",
          "blockNumber": "0x128d9b4",
          "transactionHash": "0x9322c2ed1fe1658df00ebd126554cac72884fdc26778d0aa1e97d6d57cbca04a",
          "transactionIndex": "0x0",
          "logIndex": "0x0",
          "removed": false
        }
      ],
      "logsBloom": "0x04000000000000000000000000000000000000000000000000000000000000000000000000000008000020000000000000000000000000000000000000000000000000000000000000000040000040000000000000000000000000000000000000000000000000000000000000000000000000000000000000000000000000000000000000000000000000000000000040000000000000000000000000000000000000000000000000000100000000000000000000000000000000000000000000000000000000000000000000000000000000000000000000000000000000000000000000000000000000000000000000800000008000000000000000000000",
      "type": "0x2",
      "transactionHash": "0x9322c2ed1fe1658df00ebd126554cac72884fdc26778d0aa1e97d6d57cbca04a",
      "transactionIndex": "0x1",
      "blockHash": "0x1b77a6178a1c1667509b2e62b229d75f86dbce5995c6e531f3c53d46ad68d23e",
      "blockNumber": "0x128d9b4",
      "gasUsed": "0x1a5f2",
      "effectiveGasPrice": "0x12a05f201",
      "from": "0xd4c5a44b6bbbdadb16973947c32cbc1d335fb416",
      "to": "0x22575a2f08fb2bc328717e0a903b2cb0e8077274",
      "contractAddress": null
    }
  ],
  "libraries": [],
  "pending": [],
  "returns": {},
  "timestamp": 1743780514,
  "chain": 90001,
  "commit": null
}