{
  "transactions": [
    {
      "hash": "0x16a9a411748033023020a97b22bbd71385bed93498ebae4e9e921880164dd1a7",
      "transactionType": "CALL",
      "contractName": null,
      "contractAddress": "0x51b942320ea4563beee5326905ed581bbb3ad155",
      "function": "addPool(address,uint256)",
      "arguments": [
        "0x789492C8c1445a795a3C4439579A0Df89B557791",
        "50"
      ],
      "transaction": {
        "from": "0xd4c5a44b6bbbdadb16973947c32cbc1d335fb416",
        "to": "0x51b942320ea4563beee5326905ed581bbb3ad155",
        "gas": "0x32c79",
        "value": "0x0",
        "input": "0x32a9caba000000000000000000000000789492c8c1445a795a3c4439579a0df89b5577910000000000000000000000000000000000000000000000000000000000000032",
        "nonce": "0x5",
        "chainId": "0x15f91"
      },
      "additionalContracts": [],
      "isFixedGasLimit": false
    },
    {
      "hash": "0x973a5eb6ab18b94101f2abc43749f4f73e4e69b191c394a83f63bb03a0cf70ad",
      "transactionType": "CALL",
      "contractName": null,
      "contractAddress": "0x51b942320ea4563beee5326905ed581bbb3ad155",
      "function": "addPool(address,uint256)",
      "arguments": [
        "0xA5F25C6A6C1ae1Dc0941CfB3c7541F18C868572c",
        "30"
      ],
      "transaction": {
        "from": "0xd4c5a44b6bbbdadb16973947c32cbc1d335fb416",
        "to": "0x51b942320ea4563beee5326905ed581bbb3ad155",
        "gas": "0x26918",
        "value": "0x0",
        "input": "0x32a9caba000000000000000000000000a5f25c6a6c1ae1dc0941cfb3c7541f18c868572c000000000000000000000000000000000000000000000000000000000000001e",
        "nonce": "0x6",
        "chainId": "0x15f91"
      },
      "additionalContracts": [],
      "isFixedGasLimit": false
    },
    {
      "hash": "0x63e9d908665dfe8cfcfb09b6e567475f41900e418edfa12f827f34ef200b432e",
      "transactionType": "CALL",
      "contractName": null,
      "contractAddress": "0x51b942320ea4563beee5326905ed581bbb3ad155",
      "function": "addPool(address,uint256)",
      "arguments": [
        "0xe8aa95A994987cA850ae35443b39ed1deB52aA0f",
        "20"
      ],
      "transaction": {
        "from": "0xd4c5a44b6bbbdadb16973947c32cbc1d335fb416",
        "to": "0x51b942320ea4563beee5326905ed581bbb3ad155",
        "gas": "0x26918",
        "value": "0x0",
        "input": "0x32a9caba000000000000000000000000e8aa95a994987ca850ae35443b39ed1deb52aa0f0000000000000000000000000000000000000000000000000000000000000014",
        "nonce": "0x7",
        "chainId": "0x15f91"
      },
      "additionalContracts": [],
      "isFixedGasLimit": false
    }
  ],
  "receipts": [
    {
      "status": "0x1",
      "cumulativeGasUsed": "0x22b8a",
      "logs": [
        {
          "address": "0x51b942320ea4563beee5326905ed581bbb3ad155",
          "topics": [
            "0x6c5d0ef1d0199b6de41ecbce95f59643be4d723ca363faf92d756e61e82fb13e",
            "0x0000000000000000000000000000000000000000000000000000000000000000"
          ],
          "data": "0x000000000000000000000000789492c8c1445a795a3c4439579a0df89b5577910000000000000000000000000000000000000000000000000000000000000032",
          "blockHash": "0xb6b189ade4ba0d23ac678a852ad8f8bc13de8d8efdf7eb99d8fa932872e30b56",
          "blockNumber": "0x1289926",
          "transactionHash": "0x16a9a411748033023020a97b22bbd71385bed93498ebae4e9e921880164dd1a7",
          "transactionIndex": "0x0",
          "logIndex": "0x0",
          "removed": false
        }
      ],
      "logsBloom": "0x00000000000000000000000000000000000000000000000000000000000000000000000000000008000000000000000000000000000000000000000000000000000000000000000000000040010000000000000000000000000000000000000000000000020000000000000000000800000000000000000000000000000000400000000000000000000000000000000000000000000000000000000000000000000000000000000000000000000000000000000000000000000000000000000000000000000000000000000000000000000000000000000000000000000020000000200000000000000000000000000000800000000000000000000000000000",
      "type": "0x2",
      "transactionHash": "0x16a9a411748033023020a97b22bbd71385bed93498ebae4e9e921880164dd1a7",
      "transactionIndex": "0x0",
      "blockHash": "0xb6b189ade4ba0d23ac678a852ad8f8bc13de8d8efdf7eb99d8fa932872e30b56",
      "blockNumber": "0x1289926",
      "gasUsed": "0x22b8a",
      "effectiveGasPrice": "0x12a05f201",
      "from": "0xd4c5a44b6bbbdadb16973947c32cbc1d335fb416",
      "to": "0x51b942320ea4563beee5326905ed581bbb3ad155",
      "contractAddress": null
    },
    {
      "status": "0x1",
      "cumulativeGasUsed": "0x1a5f2",
      "logs": [
        {
          "address": "0x51b942320ea4563beee5326905ed581bbb3ad155",
          "topics": [
            "0x6c5d0ef1d0199b6de41ecbce95f59643be4d723ca363faf92d756e61e82fb13e",
            "0x0000000000000000000000000000000000000000000000000000000000000001"
          ],
          "data": "0x000000000000000000000000a5f25c6a6c1ae1dc0941cfb3c7541f18c868572c000000000000000000000000000000000000000000000000000000000000001e",
          "blockHash": "0x1de530a629c1be469f647718d22fe1c8ddd6133a124094798d583707adbb2544",
          "blockNumber": "0x1289927",
          "transactionHash": "0x973a5eb6ab18b94101f2abc43749f4f73e4e69b191c394a83f63bb03a0cf70ad",
          "transactionIndex": "0x0",
          "logIndex": "0x0",
          "removed": false
        }
      ],
      "logsBloom": "0x00000000000000000000000000000000000000000000000000000000000000000000000000000008000000000000000000000000000000000000000000040000000000000000000000000040010000000000000000040000000000000000000000000000000000000000000000000000000000000000000000000000000000400000000000000000000000000000000000000000000000000000000000000000000000000000000000000000000000000000000000000000000000000000000000000000000000000000000000000000000000000000000000000000000040000000200000000000000000000000000000800000000000000000000000000000",
      "type": "0x2",
      "transactionHash": "0x973a5eb6ab18b94101f2abc43749f4f73e4e69b191c394a83f63bb03a0cf70ad",
      "transactionIndex": "0x0",
      "blockHash": "0x1de530a629c1be469f647718d22fe1c8ddd6133a124094798d583707adbb2544",
      "blockNumber": "0x1289927",
      "gasUsed": "0x1a5f2",
      "effectiveGasPrice": "0x12a05f201",
      "from": "0xd4c5a44b6bbbdadb16973947c32cbc1d335fb416",
      "to": "0x51b942320ea4563beee5326905ed581bbb3ad155",
      "contractAddress": null
    },
    {
      "status": "0x1",
      "cumulativeGasUsed": "0x34be4",
      "logs": [
        {
          "address": "0x51b942320ea4563beee5326905ed581bbb3ad155",
          "topics": [
            "0x6c5d0ef1d0199b6de41ecbce95f59643be4d723ca363faf92d756e61e82fb13e",
            "0x0000000000000000000000000000000000000000000000000000000000000002"
          ],
          "data": "0x000000000000000000000000e8aa95a994987ca850ae35443b39ed1deb52aa0f0000000000000000000000000000000000000000000000000000000000000014",
          "blockHash": "0x1de530a629c1be469f647718d22fe1c8ddd6133a124094798d583707adbb2544",
          "blockNumber": "0x1289927",
          "transactionHash": "0x63e9d908665dfe8cfcfb09b6e567475f41900e418edfa12f827f34ef200b432e",
          "transactionIndex": "0x0",
          "logIndex": "0x0",
          "removed": false
        }
      ],
      "logsBloom": "0x04000000000000000000000000000000000000000000000000000000000000000000000000000008000000000000000000000000000000000000000000000000000000000000000000000040010000000000000000000000000000000000000000000000000000000000000000000000000000000000000000000000000000400000000000000000000000000000000000000000000000000000000000000000000000000000000000000100000000000000000000000000000000000000000000000000000000000000000000000000000000000000000000000000000000000000200000000000000000000000000000800000008000000000000000000000",
      "type": "0x2",
      "transactionHash": "0x63e9d908665dfe8cfcfb09b6e567475f41900e418edfa12f827f34ef200b432e",
      "transactionIndex": "0x1",
      "blockHash": "0x1de530a629c1be469f647718d22fe1c8ddd6133a124094798d583707adbb2544",
      "blockNumber": "0x1289927",
      "gasUsed": "0x1a5f2",
      "effectiveGasPrice": "0x12a05f201",
      "from": "0xd4c5a44b6bbbdadb16973947c32cbc1d335fb416",
      "to": "0x51b942320ea4563beee5326905ed581bbb3ad155",
      "contractAddress": null
    }
  ],
  "libraries": [],
  "pending": [],
  "returns": {},
  "timestamp": 1743690166,
  "chain": 90001,
  "commit": null
}