{
  "transactions": [
    {
      "hash": "0xbd24b582c9e1fbf289a4964ab80d269a03cbf76e7df7859d0cb6d7920ff01e72",
      "transactionType": "CALL",
      "contractName": null,
      "contractAddress": "0xe86d001cc2c47fb070d957eedd59a0944b78abb4",
      "function": "addPool(address,uint256)",
      "arguments": [
        "0x789492C8c1445a795a3C4439579A0Df89B557791",
        "50"
      ],
      "transaction": {
        "from": "0xd4c5a44b6bbbdadb16973947c32cbc1d335fb416",
        "to": "0xe86d001cc2c47fb070d957eedd59a0944b78abb4",
        "gas": "0x32c79",
        "value": "0x0",
        "input": "0x32a9caba000000000000000000000000789492c8c1445a795a3c4439579a0df89b5577910000000000000000000000000000000000000000000000000000000000000032",
        "nonce": "0x9",
        "chainId": "0x15f91"
      },
      "additionalContracts": [],
      "isFixedGasLimit": false
    },
    {
      "hash": "0xcc424ae85f4d3d2967d730e4eca7160fb8da1297863d9ce2b8e3b1e75eda50af",
      "transactionType": "CALL",
      "contractName": null,
      "contractAddress": "0xe86d001cc2c47fb070d957eedd59a0944b78abb4",
      "function": "addPool(address,uint256)",
      "arguments": [
        "0xA5F25C6A6C1ae1Dc0941CfB3c7541F18C868572c",
        "30"
      ],
      "transaction": {
        "from": "0xd4c5a44b6bbbdadb16973947c32cbc1d335fb416",
        "to": "0xe86d001cc2c47fb070d957eedd59a0944b78abb4",
        "gas": "0x26918",
        "value": "0x0",
        "input": "0x32a9caba000000000000000000000000a5f25c6a6c1ae1dc0941cfb3c7541f18c868572c000000000000000000000000000000000000000000000000000000000000001e",
        "nonce": "0xa",
        "chainId": "0x15f91"
      },
      "additionalContracts": [],
      "isFixedGasLimit": false
    },
    {
      "hash": "0x792ce3ac14d3181716184ffc713bb1a69bf1c84fd5c7b3ac6b7bf5be56fa869e",
      "transactionType": "CALL",
      "contractName": null,
      "contractAddress": "0xe86d001cc2c47fb070d957eedd59a0944b78abb4",
      "function": "addPool(address,uint256)",
      "arguments": [
        "0xe8aa95A994987cA850ae35443b39ed1deB52aA0f",
        "20"
      ],
      "transaction": {
        "from": "0xd4c5a44b6bbbdadb16973947c32cbc1d335fb416",
        "to": "0xe86d001cc2c47fb070d957eedd59a0944b78abb4",
        "gas": "0x26918",
        "value": "0x0",
        "input": "0x32a9caba000000000000000000000000e8aa95a994987ca850ae35443b39ed1deb52aa0f0000000000000000000000000000000000000000000000000000000000000014",
        "nonce": "0xb",
        "chainId": "0x15f91"
      },
      "additionalContracts": [],
      "isFixedGasLimit": false
    }
  ],
  "receipts": [
    {
      "status": "0x1",
      "cumulativeGasUsed": "0x22b8a",
      "logs": [
        {
          "address": "0xe86d001cc2c47fb070d957eedd59a0944b78abb4",
          "topics": [
            "0x6c5d0ef1d0199b6de41ecbce95f59643be4d723ca363faf92d756e61e82fb13e",
            "0x0000000000000000000000000000000000000000000000000000000000000000"
          ],
          "data": "0x000000000000000000000000789492c8c1445a795a3c4439579a0df89b5577910000000000000000000000000000000000000000000000000000000000000032",
          "blockHash": "0x52abd5115ffdc2000c9ebb68a8af186676069a8545a9fcac325b2ccf56d2ca82",
          "blockNumber": "0x1289af8",
          "transactionHash": "0xbd24b582c9e1fbf289a4964ab80d269a03cbf76e7df7859d0cb6d7920ff01e72",
          "transactionIndex": "0x0",
          "logIndex": "0x0",
          "removed": false
        }
      ],
      "logsBloom": "0x00000000000000000000000000000000000000000000000000000000000000000000000000000008000000000000000000000000000000000000000000000000000000000000000000000040000000000000000000000010000000000000000000000000020000000000000000000800000000000000000000000000000000000000000000000000000000000000000000000000000000000000000000000000000000000000000000000000000000000000000000000000000000000000000000000000000000000800000000000000000000000000000000000000000020000000000000000000000000000000000000800000000400000000000000000000",
      "type": "0x2",
      "transactionHash": "0xbd24b582c9e1fbf289a4964ab80d269a03cbf76e7df7859d0cb6d7920ff01e72",
      "transactionIndex": "0x0",
      "blockHash": "0x52abd5115ffdc2000c9ebb68a8af186676069a8545a9fcac325b2ccf56d2ca82",
      "blockNumber": "0x1289af8",
      "gasUsed": "0x22b8a",
      "effectiveGasPrice": "0x12a05f201",
      "from": "0xd4c5a44b6bbbdadb16973947c32cbc1d335fb416",
      "to": "0xe86d001cc2c47fb070d957eedd59a0944b78abb4",
      "contractAddress": null
    },
    {
      "status": "0x1",
      "cumulativeGasUsed": "0x3d17c",
      "logs": [
        {
          "address": "0xe86d001cc2c47fb070d957eedd59a0944b78abb4",
          "topics": [
            "0x6c5d0ef1d0199b6de41ecbce95f59643be4d723ca363faf92d756e61e82fb13e",
            "0x0000000000000000000000000000000000000000000000000000000000000001"
          ],
          "data": "0x000000000000000000000000a5f25c6a6c1ae1dc0941cfb3c7541f18c868572c000000000000000000000000000000000000000000000000000000000000001e",
          "blockHash": "0x52abd5115ffdc2000c9ebb68a8af186676069a8545a9fcac325b2ccf56d2ca82",
          "blockNumber": "0x1289af8",
          "transactionHash": "0xcc424ae85f4d3d2967d730e4eca7160fb8da1297863d9ce2b8e3b1e75eda50af",
          "transactionIndex": "0x0",
          "logIndex": "0x0",
          "removed": false
        }
      ],
      "logsBloom": "0x00000000000000000000000000000000000000000000000000000000000000000000000000000008000000000000000000000000000000000000000000040000000000000000000000000040000000000000000000040010000000000000000000000000000000000000000000000000000000000000000000000000000000000000000000000000000000000000000000000000000000000000000000000000000000000000000000000000000000000000000000000000000000000000000000000000000000000800000000000000000000000000000000000000000040000000000000000000000000000000000000800000000400000000000000000000",
      "type": "0x2",
      "transactionHash": "0xcc424ae85f4d3d2967d730e4eca7160fb8da1297863d9ce2b8e3b1e75eda50af",
      "transactionIndex": "0x1",
      "blockHash": "0x52abd5115ffdc2000c9ebb68a8af186676069a8545a9fcac325b2ccf56d2ca82",
      "blockNumber": "0x1289af8",
      "gasUsed": "0x1a5f2",
      "effectiveGasPrice": "0x12a05f201",
      "from": "0xd4c5a44b6bbbdadb16973947c32cbc1d335fb416",
      "to": "0xe86d001cc2c47fb070d957eedd59a0944b78abb4",
      "contractAddress": null
    },
    {
      "status": "0x1",
      "cumulativeGasUsed": "0x5776e",
      "logs": [
        {
          "address": "0xe86d001cc2c47fb070d957eedd59a0944b78abb4",
          "topics": [
            "0x6c5d0ef1d0199b6de41ecbce95f59643be4d723ca363faf92d756e61e82fb13e",
            "0x0000000000000000000000000000000000000000000000000000000000000002"
          ],
          "data": "0x000000000000000000000000e8aa95a994987ca850ae35443b39ed1deb52aa0f0000000000000000000000000000000000000000000000000000000000000014",
          "blockHash": "0x52abd5115ffdc2000c9ebb68a8af186676069a8545a9fcac325b2ccf56d2ca82",
          "blockNumber": "0x1289af8",
          "transactionHash": "0x792ce3ac14d3181716184ffc713bb1a69bf1c84fd5c7b3ac6b7bf5be56fa869e",
          "transactionIndex": "0x0",
          "logIndex": "0x0",
          "removed": false
        }
      ],
      "logsBloom": "0x04000000000000000000000000000000000000000000000000000000000000000000000000000008000000000000000000000000000000000000000000000000000000000000000000000040000000000000000000000010000000000000000000000000000000000000000000000000000000000000000000000000000000000000000000000000000000000000000000000000000000000000000000000000000000000000000000000100000000000000000000000000000000000000000000000000000000000800000000000000000000000000000000000000000000000000000000000000000000000000000000800000008400000000000000000000",
      "type": "0x2",
      "transactionHash": "0x792ce3ac14d3181716184ffc713bb1a69bf1c84fd5c7b3ac6b7bf5be56fa869e",
      "transactionIndex": "0x2",
      "blockHash": "0x52abd5115ffdc2000c9ebb68a8af186676069a8545a9fcac325b2ccf56d2ca82",
      "blockNumber": "0x1289af8",
      "gasUsed": "0x1a5f2",
      "effectiveGasPrice": "0x12a05f201",
      "from": "0xd4c5a44b6bbbdadb16973947c32cbc1d335fb416",
      "to": "0xe86d001cc2c47fb070d957eedd59a0944b78abb4",
      "contractAddress": null
    }
  ],
  "libraries": [],
  "pending": [],
  "returns": {},
  "timestamp": 1743692709,
  "chain": 90001,
  "commit": null
}