{
  "transactions": [
    {
      "hash": "0xa7a0316a3af6790674c46349196e0b26fc0b4bc4c5f27d0f0a904cec458426c8",
      "transactionType": "CALL",
      "contractName": null,
      "contractAddress": "0x007f4a8c3c3001c00f17cd9e5bf3d764931b57af",
      "function": "addPool(address,uint256)",
      "arguments": [
        "0x789492C8c1445a795a3C4439579A0Df89B557791",
        "50"
      ],
      "transaction": {
        "from": "0xd4c5a44b6bbbdadb16973947c32cbc1d335fb416",
        "to": "0x007f4a8c3c3001c00f17cd9e5bf3d764931b57af",
        "gas": "0x32c79",
        "value": "0x0",
        "input": "0x32a9caba000000000000000000000000789492c8c1445a795a3c4439579a0df89b5577910000000000000000000000000000000000000000000000000000000000000032",
        "nonce": "0x33",
        "chainId": "0x15f91"
      },
      "additionalContracts": [],
      "isFixedGasLimit": false
    },
    {
      "hash": "0xfe9c2eb7acb12c53efa27b2d72d075a104ebf53f5e668a7194c5176d7add8e96",
      "transactionType": "CALL",
      "contractName": null,
      "contractAddress": "0x007f4a8c3c3001c00f17cd9e5bf3d764931b57af",
      "function": "addPool(address,uint256)",
      "arguments": [
        "0xA5F25C6A6C1ae1Dc0941CfB3c7541F18C868572c",
        "30"
      ],
      "transaction": {
        "from": "0xd4c5a44b6bbbdadb16973947c32cbc1d335fb416",
        "to": "0x007f4a8c3c3001c00f17cd9e5bf3d764931b57af",
        "gas": "0x26918",
        "value": "0x0",
        "input": "0x32a9caba000000000000000000000000a5f25c6a6c1ae1dc0941cfb3c7541f18c868572c000000000000000000000000000000000000000000000000000000000000001e",
        "nonce": "0x34",
        "chainId": "0x15f91"
      },
      "additionalContracts": [],
      "isFixedGasLimit": false
    },
    {
      "hash": "0xf0c47aaac35d528046cb0054c784d5d51ab7bf75e7082c2533cebac39f0ef237",
      "transactionType": "CALL",
      "contractName": null,
      "contractAddress": "0x007f4a8c3c3001c00f17cd9e5bf3d764931b57af",
      "function": "addPool(address,uint256)",
      "arguments": [
        "0xe8aa95A994987cA850ae35443b39ed1deB52aA0f",
        "20"
      ],
      "transaction": {
        "from": "0xd4c5a44b6bbbdadb16973947c32cbc1d335fb416",
        "to": "0x007f4a8c3c3001c00f17cd9e5bf3d764931b57af",
        "gas": "0x26918",
        "value": "0x0",
        "input": "0x32a9caba000000000000000000000000e8aa95a994987ca850ae35443b39ed1deb52aa0f0000000000000000000000000000000000000000000000000000000000000014",
        "nonce": "0x35",
        "chainId": "0x15f91"
      },
      "additionalContracts": [],
      "isFixedGasLimit": false
    }
  ],
  "receipts": [
    {
      "status": "0x1",
      "cumulativeGasUsed": "0x22b8a",
      "logs": [
        {
          "address": "0x007f4a8c3c3001c00f17cd9e5bf3d764931b57af",
          "topics": [
            "0x6c5d0ef1d0199b6de41ecbce95f59643be4d723ca363faf92d756e61e82fb13e",
            "0x0000000000000000000000000000000000000000000000000000000000000000"
          ],
          "data": "0x000000000000000000000000789492c8c1445a795a3c4439579a0df89b5577910000000000000000000000000000000000000000000000000000000000000032",
          "blockHash": "0x64cd1b05752d419b6716319981603f2dc3920ec336b0acad59d73000b81eb3ea",
          "blockNumber": "0x128d8cf",
          "transactionHash": "0xa7a0316a3af6790674c46349196e0b26fc0b4bc4c5f27d0f0a904cec458426c8",
          "transactionIndex": "0x0",
          "logIndex": "0x0",
          "removed": false
        }
      ],
      "logsBloom": "0x00000000000000000000000000000000004000000000000000000000000000000000000000000008000000000000010000000000000000000000000000000000000000000000000000000040000000000000000000000000000000000000000000000000020000000000000000000800000000000100000000000000000000000000000000000000000000000000000000000000000000000000000000000000000000000000000000000000000000000000000000000000000000000000000000000000000000000000000000000000000000000000000000000000000020000000000000000000000000000000000000800000000000000000000000000000",
      "type": "0x2",
      "transactionHash": "0xa7a0316a3af6790674c46349196e0b26fc0b4bc4c5f27d0f0a904cec458426c8",
      "transactionIndex": "0x0",
      "blockHash": "0x64cd1b05752d419b6716319981603f2dc3920ec336b0acad59d73000b81eb3ea",
      "blockNumber": "0x128d8cf",
      "gasUsed": "0x22b8a",
      "effectiveGasPrice": "0x12a05f201",
      "from": "0xd4c5a44b6bbbdadb16973947c32cbc1d335fb416",
      "to": "0x007f4a8c3c3001c00f17cd9e5bf3d764931b57af",
      "contractAddress": null
    },
    {
      "status": "0x1",
      "cumulativeGasUsed": "0x3d17c",
      "logs": [
        {
          "address": "0x007f4a8c3c3001c00f17cd9e5bf3d764931b57af",
          "topics": [
            "0x6c5d0ef1d0199b6de41ecbce95f59643be4d723ca363faf92d756e61e82fb13e",
            "0x0000000000000000000000000000000000000000000000000000000000000001"
          ],
          "data": "0x000000000000000000000000a5f25c6a6c1ae1dc0941cfb3c7541f18c868572c000000000000000000000000000000000000000000000000000000000000001e",
          "blockHash": "0x64cd1b05752d419b6716319981603f2dc3920ec336b0acad59d73000b81eb3ea",
          "blockNumber": "0x128d8cf",
          "transactionHash": "0xfe9c2eb7acb12c53efa27b2d72d075a104ebf53f5e668a7194c5176d7add8e96",
          "transactionIndex": "0x0",
          "logIndex": "0x0",
          "removed": false
        }
      ],
      "logsBloom": "0x00000000000000000000000000000000004000000000000000000000000000000000000000000008000000000000010000000000000000000000000000040000000000000000000000000040000000000000000000040000000000000000000000000000000000000000000000000000000000000100000000000000000000000000000000000000000000000000000000000000000000000000000000000000000000000000000000000000000000000000000000000000000000000000000000000000000000000000000000000000000000000000000000000000000040000000000000000000000000000000000000800000000000000000000000000000",
      "type": "0x2",
      "transactionHash": "0xfe9c2eb7acb12c53efa27b2d72d075a104ebf53f5e668a7194c5176d7add8e96",
      "transactionIndex": "0x1",
      "blockHash": "0x64cd1b05752d419b6716319981603f2dc3920ec336b0acad59d73000b81eb3ea",
      "blockNumber": "0x128d8cf",
      "gasUsed": "0x1a5f2",
      "effectiveGasPrice": "0x12a05f201",
      "from": "0xd4c5a44b6bbbdadb16973947c32cbc1d335fb416",
      "to": "0x007f4a8c3c3001c00f17cd9e5bf3d764931b57af",
      "contractAddress": null
    },
    {
      "status": "0x1",
      "cumulativeGasUsed": "0x5776e",
      "logs": [
        {
          "address": "0x007f4a8c3c3001c00f17cd9e5bf3d764931b57af",
          "topics": [
            "0x6c5d0ef1d0199b6de41ecbce95f59643be4d723ca363faf92d756e61e82fb13e",
            "0x0000000000000000000000000000000000000000000000000000000000000002"
          ],
          "data": "0x000000000000000000000000e8aa95a994987ca850ae35443b39ed1deb52aa0f0000000000000000000000000000000000000000000000000000000000000014",
          "blockHash": "0x64cd1b05752d419b6716319981603f2dc3920ec336b0acad59d73000b81eb3ea",
          "blockNumber": "0x128d8cf",
          "transactionHash": "0xf0c47aaac35d528046cb0054c784d5d51ab7bf75e7082c2533cebac39f0ef237",
          "transactionIndex": "0x0",
          "logIndex": "0x0",
          "removed": false
        }
      ],
      "logsBloom": "0x04000000000000000000000000000000004000000000000000000000000000000000000000000008000000000000010000000000000000000000000000000000000000000000000000000040000000000000000000000000000000000000000000000000000000000000000000000000000000000100000000000000000000000000000000000000000000000000000000000000000000000000000000000000000000000000000000000100000000000000000000000000000000000000000000000000000000000000000000000000000000000000000000000000000000000000000000000000000000000000000000800000008000000000000000000000",
      "type": "0x2",
      "transactionHash": "0xf0c47aaac35d528046cb0054c784d5d51ab7bf75e7082c2533cebac39f0ef237",
      "transactionIndex": "0x2",
      "blockHash": "0x64cd1b05752d419b6716319981603f2dc3920ec336b0acad59d73000b81eb3ea",
      "blockNumber": "0x128d8cf",
      "gasUsed": "0x1a5f2",
      "effectiveGasPrice": "0x12a05f201",
      "from": "0xd4c5a44b6bbbdadb16973947c32cbc1d335fb416",
      "to": "0x007f4a8c3c3001c00f17cd9e5bf3d764931b57af",
      "contractAddress": null
    }
  ],
  "libraries": [],
  "pending": [],
  "returns": {},
  "timestamp": 1743779262,
  "chain": 90001,
  "commit": null
}