{
  "transactions": [
    {
      "hash": "0x1a1a75d000e38d043523e4601aad037bd6c57921b7bec2ecb61768553b0cf9e5",
      "transactionType": "CALL",
      "contractName": null,
      "contractAddress": "0x03d8b3237b79639ae0bd845f94ee304679b35721",
      "function": "addPool(address,uint256)",
      "arguments": [
        "0x789492C8c1445a795a3C4439579A0Df89B557791",
        "50"
      ],
      "transaction": {
        "from": "0xd4c5a44b6bbbdadb16973947c32cbc1d335fb416",
        "to": "0x03d8b3237b79639ae0bd845f94ee304679b35721",
        "gas": "0x32c79",
        "value": "0x0",
        "input": "0x32a9caba000000000000000000000000789492c8c1445a795a3c4439579a0df89b5577910000000000000000000000000000000000000000000000000000000000000032",
        "nonce": "0x17",
        "chainId": "0x15f91"
      },
      "additionalContracts": [],
      "isFixedGasLimit": false
    },
    {
      "hash": "0xf2b437a6d353e93a0a4253c393cd7ba32e316b9fcf72d412fecdc817117e38cf",
      "transactionType": "CALL",
      "contractName": null,
      "contractAddress": "0x03d8b3237b79639ae0bd845f94ee304679b35721",
      "function": "addPool(address,uint256)",
      "arguments": [
        "0xA5F25C6A6C1ae1Dc0941CfB3c7541F18C868572c",
        "30"
      ],
      "transaction": {
        "from": "0xd4c5a44b6bbbdadb16973947c32cbc1d335fb416",
        "to": "0x03d8b3237b79639ae0bd845f94ee304679b35721",
        "gas": "0x26918",
        "value": "0x0",
        "input": "0x32a9caba000000000000000000000000a5f25c6a6c1ae1dc0941cfb3c7541f18c868572c000000000000000000000000000000000000000000000000000000000000001e",
        "nonce": "0x18",
        "chainId": "0x15f91"
      },
      "additionalContracts": [],
      "isFixedGasLimit": false
    },
    {
      "hash": "0xa5f51534540585986515a52c09b280638b20de6c88bb2de03bf9ccaaddf37964",
      "transactionType": "CALL",
      "contractName": null,
      "contractAddress": "0x03d8b3237b79639ae0bd845f94ee304679b35721",
      "function": "addPool(address,uint256)",
      "arguments": [
        "0xe8aa95A994987cA850ae35443b39ed1deB52aA0f",
        "20"
      ],
      "transaction": {
        "from": "0xd4c5a44b6bbbdadb16973947c32cbc1d335fb416",
        "to": "0x03d8b3237b79639ae0bd845f94ee304679b35721",
        "gas": "0x26918",
        "value": "0x0",
        "input": "0x32a9caba000000000000000000000000e8aa95a994987ca850ae35443b39ed1deb52aa0f0000000000000000000000000000000000000000000000000000000000000014",
        "nonce": "0x19",
        "chainId": "0x15f91"
      },
      "additionalContracts": [],
      "isFixedGasLimit": false
    }
  ],
  "receipts": [
    {
      "status": "0x1",
      "cumulativeGasUsed": "0x22b8a",
      "logs": [
        {
          "address": "0x03d8b3237b79639ae0bd845f94ee304679b35721",
          "topics": [
            "0x6c5d0ef1d0199b6de41ecbce95f59643be4d723ca363faf92d756e61e82fb13e",
            "0x0000000000000000000000000000000000000000000000000000000000000000"
          ],
          "data": "0x000000000000000000000000789492c8c1445a795a3c4439579a0df89b5577910000000000000000000000000000000000000000000000000000000000000032",
          "blockHash": "0x73d074e266b917026b1c735a7b803c6c6042f79a1a3552bf4ed093a1538074f4",
          "blockNumber": "0x1289e9b",
          "transactionHash": "0x1a1a75d000e38d043523e4601aad037bd6c57921b7bec2ecb61768553b0cf9e5",
          "transactionIndex": "0x0",
          "logIndex": "0x0",
          "removed": false
        }
      ],
      "logsBloom": "0x00000000000000000000000000000000000000000000000000000000000000000000000000000008000000000000000000000000000000008000000000000000000000000000000000000040000000000000000000000000000000000000000000000000020000000000000000000800000000000000000000000000000000000000000000000200000000000000000000000000000000000000000000000000000000000000000000000000000000000000000000000000000000000000000000000000000000000000000000000000000000000000000000000000000020000000000000000000000000000000000000800000000000000000000000000000",
      "type": "0x2",
      "transactionHash": "0x1a1a75d000e38d043523e4601aad037bd6c57921b7bec2ecb61768553b0cf9e5",
      "transactionIndex": "0x0",
      "blockHash": "0x73d074e266b917026b1c735a7b803c6c6042f79a1a3552bf4ed093a1538074f4",
      "blockNumber": "0x1289e9b",
      "gasUsed": "0x22b8a",
      "effectiveGasPrice": "0x12a153440",
      "from": "0xd4c5a44b6bbbdadb16973947c32cbc1d335fb416",
      "to": "0x03d8b3237b79639ae0bd845f94ee304679b35721",
      "contractAddress": null
    },
    {
      "status": "0x1",
      "cumulativeGasUsed": "0x3d17c",
      "logs": [
        {
          "address": "0x03d8b3237b79639ae0bd845f94ee304679b35721",
          "topics": [
            "0x6c5d0ef1d0199b6de41ecbce95f59643be4d723ca363faf92d756e61e82fb13e",
            "0x0000000000000000000000000000000000000000000000000000000000000001"
          ],
          "data": "0x000000000000000000000000a5f25c6a6c1ae1dc0941cfb3c7541f18c868572c000000000000000000000000000000000000000000000000000000000000001e",
          "blockHash": "0x73d074e266b917026b1c735a7b803c6c6042f79a1a3552bf4ed093a1538074f4",
          "blockNumber": "0x1289e9b",
          "transactionHash": "0xf2b437a6d353e93a0a4253c393cd7ba32e316b9fcf72d412fecdc817117e38cf",
          "transactionIndex": "0x0",
          "logIndex": "0x0",
          "removed": false
        }
      ],
      "logsBloom": "0x00000000000000000000000000000000000000000000000000000000000000000000000000000008000000000000000000000000000000008000000000040000000000000000000000000040000000000000000000040000000000000000000000000000000000000000000000000000000000000000000000000000000000000000000000000200000000000000000000000000000000000000000000000000000000000000000000000000000000000000000000000000000000000000000000000000000000000000000000000000000000000000000000000000000040000000000000000000000000000000000000800000000000000000000000000000",
      "type": "0x2",
      "transactionHash": "0xf2b437a6d353e93a0a4253c393cd7ba32e316b9fcf72d412fecdc817117e38cf",
      "transactionIndex": "0x1",
      "blockHash": "0x73d074e266b917026b1c735a7b803c6c6042f79a1a3552bf4ed093a1538074f4",
      "blockNumber": "0x1289e9b",
      "gasUsed": "0x1a5f2",
      "effectiveGasPrice": "0x12a153440",
      "from": "0xd4c5a44b6bbbdadb16973947c32cbc1d335fb416",
      "to": "0x03d8b3237b79639ae0bd845f94ee304679b35721",
      "contractAddress": null
    },
    {
      "status": "0x1",
      "cumulativeGasUsed": "0x5776e",
      "logs": [
        {
          "address": "0x03d8b3237b79639ae0bd845f94ee304679b35721",
          "topics": [
            "0x6c5d0ef1d0199b6de41ecbce95f59643be4d723ca363faf92d756e61e82fb13e",
            "0x0000000000000000000000000000000000000000000000000000000000000002"
          ],
          "data": "0x000000000000000000000000e8aa95a994987ca850ae35443b39ed1deb52aa0f0000000000000000000000000000000000000000000000000000000000000014",
          "blockHash": "0x73d074e266b917026b1c735a7b803c6c6042f79a1a3552bf4ed093a1538074f4",
          "blockNumber": "0x1289e9b",
          "transactionHash": "0xa5f51534540585986515a52c09b280638b20de6c88bb2de03bf9ccaaddf37964",
          "transactionIndex": "0x0",
          "logIndex": "0x0",
          "removed": false
        }
      ],
      "logsBloom": "0x04000000000000000000000000000000000000000000000000000000000000000000000000000008000000000000000000000000000000008000000000000000000000000000000000000040000000000000000000000000000000000000000000000000000000000000000000000000000000000000000000000000000000000000000000000200000000000000000000000000000000000000000000000000000000000000000000000100000000000000000000000000000000000000000000000000000000000000000000000000000000000000000000000000000000000000000000000000000000000000000000800000008000000000000000000000",
      "type": "0x2",
      "transactionHash": "0xa5f51534540585986515a52c09b280638b20de6c88bb2de03bf9ccaaddf37964",
      "transactionIndex": "0x2",
      "blockHash": "0x73d074e266b917026b1c735a7b803c6c6042f79a1a3552bf4ed093a1538074f4",
      "blockNumber": "0x1289e9b",
      "gasUsed": "0x1a5f2",
      "effectiveGasPrice": "0x12a153440",
      "from": "0xd4c5a44b6bbbdadb16973947c32cbc1d335fb416",
      "to": "0x03d8b3237b79639ae0bd845f94ee304679b35721",
      "contractAddress": null
    }
  ],
  "libraries": [],
  "pending": [],
  "returns": {},
  "timestamp": 1743697799,
  "chain": 90001,
  "commit": null
}