{
  "transactions": [
    {
      "hash": "0xb769b212658aca71778e61380f02635dbe0f278334cbf463eb288e56ad796221",
      "transactionType": "CALL",
      "contractName": null,
      "contractAddress": "0x1a91897d1dd48609ce5eb0b8f36f7a9874ce8288",
      "function": "addPool(address,uint256)",
      "arguments": [
        "0x789492C8c1445a795a3C4439579A0Df89B557791",
        "50"
      ],
      "transaction": {
        "from": "0xd4c5a44b6bbbdadb16973947c32cbc1d335fb416",
        "to": "0x1a91897d1dd48609ce5eb0b8f36f7a9874ce8288",
        "gas": "0x32c79",
        "value": "0x0",
        "input": "0x32a9caba000000000000000000000000789492c8c1445a795a3c4439579a0df89b5577910000000000000000000000000000000000000000000000000000000000000032",
        "nonce": "0x12",
        "chainId": "0x15f91"
      },
      "additionalContracts": [],
      "isFixedGasLimit": false
    },
    {
      "hash": "0x8ff2ab6b7a5d1bf7931a5595f8030443367d32868fe4283b4d8a7c133dff91a8",
      "transactionType": "CALL",
      "contractName": null,
      "contractAddress": "0x1a91897d1dd48609ce5eb0b8f36f7a9874ce8288",
      "function": "addPool(address,uint256)",
      "arguments": [
        "0xA5F25C6A6C1ae1Dc0941CfB3c7541F18C868572c",
        "30"
      ],
      "transaction": {
        "from": "0xd4c5a44b6bbbdadb16973947c32cbc1d335fb416",
        "to": "0x1a91897d1dd48609ce5eb0b8f36f7a9874ce8288",
        "gas": "0x26918",
        "value": "0x0",
        "input": "0x32a9caba000000000000000000000000a5f25c6a6c1ae1dc0941cfb3c7541f18c868572c000000000000000000000000000000000000000000000000000000000000001e",
        "nonce": "0x13",
        "chainId": "0x15f91"
      },
      "additionalContracts": [],
      "isFixedGasLimit": false
    },
    {
      "hash": "0x4a19d2ad7a6f8d887095880c6e412a508e0da66ca06b6e650c277e8f327aa142",
      "transactionType": "CALL",
      "contractName": null,
      "contractAddress": "0x1a91897d1dd48609ce5eb0b8f36f7a9874ce8288",
      "function": "addPool(address,uint256)",
      "arguments": [
        "0xe8aa95A994987cA850ae35443b39ed1deB52aA0f",
        "20"
      ],
      "transaction": {
        "from": "0xd4c5a44b6bbbdadb16973947c32cbc1d335fb416",
        "to": "0x1a91897d1dd48609ce5eb0b8f36f7a9874ce8288",
        "gas": "0x26918",
        "value": "0x0",
        "input": "0x32a9caba000000000000000000000000e8aa95a994987ca850ae35443b39ed1deb52aa0f0000000000000000000000000000000000000000000000000000000000000014",
        "nonce": "0x14",
        "chainId": "0x15f91"
      },
      "additionalContracts": [],
      "isFixedGasLimit": false
    }
  ],
  "receipts": [
    {
      "status": "0x1",
      "cumulativeGasUsed": "0x22b8a",
      "logs": [
        {
          "address": "0x1a91897d1dd48609ce5eb0b8f36f7a9874ce8288",
          "topics": [
            "0x6c5d0ef1d0199b6de41ecbce95f59643be4d723ca363faf92d756e61e82fb13e",
            "0x0000000000000000000000000000000000000000000000000000000000000000"
          ],
          "data": "0x000000000000000000000000789492c8c1445a795a3c4439579a0df89b5577910000000000000000000000000000000000000000000000000000000000000032",
          "blockHash": "0x1aef101d842864858bc6a55dd75c2b35a0e2afac3d96b7371960adbf08cbbee9",
          "blockNumber": "0x1289e58",
          "transactionHash": "0xb769b212658aca71778e61380f02635dbe0f278334cbf463eb288e56ad796221",
          "transactionIndex": "0x0",
          "logIndex": "0x0",
          "removed": false
        }
      ],
      "logsBloom": "0x00000000000000000000000000000000000000000000000000000000000000000000000000000008000000000000000000000000000000000000000000000000000000000000000000000040000000000000000000000000000000000000000000000000020000000000000000000800000000000000000000000000000000000000000000000000000000000000000000000000000000000000000000000000000000000000000000000000000000000000000000000000000000000800000000000000000000000020000000000000000000000000000000000000000020000000000000000080000000000000000000800000000000000000000000000000",
      "type": "0x2",
      "transactionHash": "0xb769b212658aca71778e61380f02635dbe0f278334cbf463eb288e56ad796221",
      "transactionIndex": "0x0",
      "blockHash": "0x1aef101d842864858bc6a55dd75c2b35a0e2afac3d96b7371960adbf08cbbee9",
      "blockNumber": "0x1289e58",
      "gasUsed": "0x22b8a",
      "effectiveGasPrice": "0x12a153440",
      "from": "0xd4c5a44b6bbbdadb16973947c32cbc1d335fb416",
      "to": "0x1a91897d1dd48609ce5eb0b8f36f7a9874ce8288",
      "contractAddress": null
    },
    {
      "status": "0x1",
      "cumulativeGasUsed": "0x3d17c",
      "logs": [
        {
          "address": "0x1a91897d1dd48609ce5eb0b8f36f7a9874ce8288",
          "topics": [
            "0x6c5d0ef1d0199b6de41ecbce95f59643be4d723ca363faf92d756e61e82fb13e",
            "0x0000000000000000000000000000000000000000000000000000000000000001"
          ],
          "data": "0x000000000000000000000000a5f25c6a6c1ae1dc0941cfb3c7541f18c868572c000000000000000000000000000000000000000000000000000000000000001e",
          "blockHash": "0x1aef101d842864858bc6a55dd75c2b35a0e2afac3d96b7371960adbf08cbbee9",
          "blockNumber": "0x1289e58",
          "transactionHash": "0x8ff2ab6b7a5d1bf7931a5595f8030443367d32868fe4283b4d8a7c133dff91a8",
          "transactionIndex": "0x0",
          "logIndex": "0x0",
          "removed": false
        }
      ],
      "logsBloom": "0x00000000000000000000000000000000000000000000000000000000000000000000000000000008000000000000000000000000000000000000000000040000000000000000000000000040000000000000000000040000000000000000000000000000000000000000000000000000000000000000000000000000000000000000000000000000000000000000000000000000000000000000000000000000000000000000000000000000000000000000000000000000000000000800000000000000000000000020000000000000000000000000000000000000000040000000000000000080000000000000000000800000000000000000000000000000",
      "type": "0x2",
      "transactionHash": "0x8ff2ab6b7a5d1bf7931a5595f8030443367d32868fe4283b4d8a7c133dff91a8",
      "transactionIndex": "0x1",
      "blockHash": "0x1aef101d842864858bc6a55dd75c2b35a0e2afac3d96b7371960adbf08cbbee9",
      "blockNumber": "0x1289e58",
      "gasUsed": "0x1a5f2",
      "effectiveGasPrice": "0x12a153440",
      "from": "0xd4c5a44b6bbbdadb16973947c32cbc1d335fb416",
      "to": "0x1a91897d1dd48609ce5eb0b8f36f7a9874ce8288",
      "contractAddress": null
    },
    {
      "status": "0x1",
      "cumulativeGasUsed": "0x5776e",
      "logs": [
        {
          "address": "0x1a91897d1dd48609ce5eb0b8f36f7a9874ce8288",
          "topics": [
            "0x6c5d0ef1d0199b6de41ecbce95f59643be4d723ca363faf92d756e61e82fb13e",
            "0x0000000000000000000000000000000000000000000000000000000000000002"
          ],
          "data": "0x000000000000000000000000e8aa95a994987ca850ae35443b39ed1deb52aa0f0000000000000000000000000000000000000000000000000000000000000014",
          "blockHash": "0x1aef101d842864858bc6a55dd75c2b35a0e2afac3d96b7371960adbf08cbbee9",
          "blockNumber": "0x1289e58",
          "transactionHash": "0x4a19d2ad7a6f8d887095880c6e412a508e0da66ca06b6e650c277e8f327aa142",
          "transactionIndex": "0x0",
          "logIndex": "0x0",
          "removed": false
        }
      ],
      "logsBloom": "0x04000000000000000000000000000000000000000000000000000000000000000000000000000008000000000000000000000000000000000000000000000000000000000000000000000040000000000000000000000000000000000000000000000000000000000000000000000000000000000000000000000000000000000000000000000000000000000000000000000000000000000000000000000000000000000000000000000100000000000000000000000000000000000800000000000000000000000020000000000000000000000000000000000000000000000000000000000080000000000000000000800000008000000000000000000000",
      "type": "0x2",
      "transactionHash": "0x4a19d2ad7a6f8d887095880c6e412a508e0da66ca06b6e650c277e8f327aa142",
      "transactionIndex": "0x2",
      "blockHash": "0x1aef101d842864858bc6a55dd75c2b35a0e2afac3d96b7371960adbf08cbbee9",
      "blockNumber": "0x1289e58",
      "gasUsed": "0x1a5f2",
      "effectiveGasPrice": "0x12a153440",
      "from": "0xd4c5a44b6bbbdadb16973947c32cbc1d335fb416",
      "to": "0x1a91897d1dd48609ce5eb0b8f36f7a9874ce8288",
      "contractAddress": null
    }
  ],
  "libraries": [],
  "pending": [],
  "returns": {},
  "timestamp": 1743697433,
  "chain": 90001,
  "commit": null
}